{
  "_format": "hh-sol-artifact-1",
  "contractName": "UserRegistration",
  "sourceName": "src/contracts/UserRegistration.sol",
  "abi": [
    {
      "inputs": [],
      "name": "getUser",
      "outputs": [
        {
          "internalType": "string",
          "name": "email",
          "type": "string"
        }
      ],
      "stateMutability": "view",
      "type": "function"
    },
    {
      "inputs": [
        {
          "internalType": "string",
          "name": "email",
          "type": "string"
        },
        {
          "internalType": "bytes32",
          "name": "passwordHash",
          "type": "bytes32"
        }
      ],
      "name": "register",
      "outputs": [],
      "stateMutability": "nonpayable",
      "type": "function"
    }
  ],
  "bytecode": "0x608060405234801561001057600080fd5b5061063d806100206000396000f3fe608060405234801561001057600080fd5b50600436106100365760003560e01c8063656afdee1461003b578063832880e714610057575b600080fd5b61005560048036038101906100509190610377565b610075565b005b61005f610186565b60405161006c9190610444565b60405180910390f35b60008060003373ffffffffffffffffffffffffffffffffffffffff1673ffffffffffffffffffffffffffffffffffffffff16815260200190815260200160002060000180546100c39061054f565b905014610105576040517f08c379a00000000000000000000000000000000000000000000000000000000081526004016100fc90610466565b60405180910390fd5b6040518060400160405280838152602001828152506000803373ffffffffffffffffffffffffffffffffffffffff1673ffffffffffffffffffffffffffffffffffffffff1681526020019081526020016000206000820151816000019080519060200190610174929190610257565b50602082015181600101559050505050565b60606000803373ffffffffffffffffffffffffffffffffffffffff1673ffffffffffffffffffffffffffffffffffffffff16815260200190815260200160002060000180546101d49061054f565b80601f01602080910402602001604051908101604052809291908181526020018280546102009061054f565b801561024d5780601f106102225761010080835404028352916020019161024d565b820191906000526020600020905b81548152906001019060200180831161023057829003601f168201915b5050505050905090565b8280546102639061054f565b90600052602060002090601f01602090048101928261028557600085556102cc565b82601f1061029e57805160ff19168380011785556102cc565b828001600101855582156102cc579182015b828111156102cb5782518255916020019190600101906102b0565b5b5090506102d991906102dd565b5090565b5b808211156102f65760008160009055506001016102de565b5090565b600061030d610308846104b7565b610486565b90508281526020810184848401111561032557600080fd5b61033084828561050d565b509392505050565b600081359050610347816105f0565b92915050565b600082601f83011261035e57600080fd5b813561036e8482602086016102fa565b91505092915050565b6000806040838503121561038a57600080fd5b600083013567ffffffffffffffff8111156103a457600080fd5b6103b08582860161034d565b92505060206103c185828601610338565b9150509250929050565b60006103d6826104e7565b6103e081856104f2565b93506103f081856020860161051c565b6103f9816105df565b840191505092915050565b60006104116017836104f2565b91507f5573657220616c726561647920726567697374657265640000000000000000006000830152602082019050919050565b6000602082019050818103600083015261045e81846103cb565b905092915050565b6000602082019050818103600083015261047f81610404565b9050919050565b6000604051905081810181811067ffffffffffffffff821117156104ad576104ac6105b0565b5b8060405250919050565b600067ffffffffffffffff8211156104d2576104d16105b0565b5b601f19601f8301169050602081019050919050565b600081519050919050565b600082825260208201905092915050565b6000819050919050565b82818337600083830152505050565b60005b8381101561053a57808201518184015260208101905061051f565b83811115610549576000848401525b50505050565b6000600282049050600182168061056757607f821691505b6020821081141561057b5761057a610581565b5b50919050565b7f4e487b7100000000000000000000000000000000000000000000000000000000600052602260045260246000fd5b7f4e487b7100000000000000000000000000000000000000000000000000000000600052604160045260246000fd5b6000601f19601f8301169050919050565b6105f981610503565b811461060457600080fd5b5056fea264697066735822122065d5b426848a952a2fd0e4a40a44655ba1cf78047017bcc102daa524021cd64f64736f6c63430008000033",
  "linkReferences": {},
  "deployedLinkReferences": {}
}